{
  "_format": "hh-sol-artifact-1",
  "contractName": "BALToken",
  "sourceName": "contracts/BALToken.sol",
  "abi": [
    {
      "inputs": [
        {
          "internalType": "address",
          "name": "_minter",
          "type": "address"
        }
      ],
      "stateMutability": "nonpayable",
      "type": "constructor"
    },
    {
      "inputs": [
        {
          "internalType": "address",
          "name": "spender",
          "type": "address"
        },
        {
          "internalType": "uint256",
          "name": "allowance",
          "type": "uint256"
        },
        {
          "internalType": "uint256",
          "name": "needed",
          "type": "uint256"
        }
      ],
      "name": "ERC20InsufficientAllowance",
      "type": "error"
    },
    {
      "inputs": [
        {
          "internalType": "address",
          "name": "sender",
          "type": "address"
        },
        {
          "internalType": "uint256",
          "name": "balance",
          "type": "uint256"
        },
        {
          "internalType": "uint256",
          "name": "needed",
          "type": "uint256"
        }
      ],
      "name": "ERC20InsufficientBalance",
      "type": "error"
    },
    {
      "inputs": [
        {
          "internalType": "address",
          "name": "approver",
          "type": "address"
        }
      ],
      "name": "ERC20InvalidApprover",
      "type": "error"
    },
    {
      "inputs": [
        {
          "internalType": "address",
          "name": "receiver",
          "type": "address"
        }
      ],
      "name": "ERC20InvalidReceiver",
      "type": "error"
    },
    {
      "inputs": [
        {
          "internalType": "address",
          "name": "sender",
          "type": "address"
        }
      ],
      "name": "ERC20InvalidSender",
      "type": "error"
    },
    {
      "inputs": [
        {
          "internalType": "address",
          "name": "spender",
          "type": "address"
        }
      ],
      "name": "ERC20InvalidSpender",
      "type": "error"
    },
    {
      "inputs": [],
      "name": "InvalidAddress",
      "type": "error"
    },
    {
      "inputs": [],
      "name": "NotMinter",
      "type": "error"
    },
    {
      "inputs": [],
      "name": "ZeroAmount",
      "type": "error"
    },
    {
      "anonymous": false,
      "inputs": [
        {
          "indexed": true,
          "internalType": "address",
          "name": "owner",
          "type": "address"
        },
        {
          "indexed": true,
          "internalType": "address",
          "name": "spender",
          "type": "address"
        },
        {
          "indexed": false,
          "internalType": "uint256",
          "name": "value",
          "type": "uint256"
        }
      ],
      "name": "Approval",
      "type": "event"
    },
    {
      "anonymous": false,
      "inputs": [
        {
          "indexed": true,
          "internalType": "address",
          "name": "from",
          "type": "address"
        },
        {
          "indexed": true,
          "internalType": "address",
          "name": "to",
          "type": "address"
        },
        {
          "indexed": false,
          "internalType": "uint256",
          "name": "value",
          "type": "uint256"
        }
      ],
      "name": "Transfer",
      "type": "event"
    },
    {
      "inputs": [
        {
          "internalType": "address",
          "name": "owner",
          "type": "address"
        },
        {
          "internalType": "address",
          "name": "spender",
          "type": "address"
        }
      ],
      "name": "allowance",
      "outputs": [
        {
          "internalType": "uint256",
          "name": "",
          "type": "uint256"
        }
      ],
      "stateMutability": "view",
      "type": "function"
    },
    {
      "inputs": [
        {
          "internalType": "address",
          "name": "spender",
          "type": "address"
        },
        {
          "internalType": "uint256",
          "name": "value",
          "type": "uint256"
        }
      ],
      "name": "approve",
      "outputs": [
        {
          "internalType": "bool",
          "name": "",
          "type": "bool"
        }
      ],
      "stateMutability": "nonpayable",
      "type": "function"
    },
    {
      "inputs": [
        {
          "internalType": "address",
          "name": "account",
          "type": "address"
        }
      ],
      "name": "balanceOf",
      "outputs": [
        {
          "internalType": "uint256",
          "name": "",
          "type": "uint256"
        }
      ],
      "stateMutability": "view",
      "type": "function"
    },
    {
      "inputs": [],
      "name": "decimals",
      "outputs": [
        {
          "internalType": "uint8",
          "name": "",
          "type": "uint8"
        }
      ],
      "stateMutability": "view",
      "type": "function"
    },
    {
      "inputs": [
        {
          "internalType": "address",
          "name": "to",
          "type": "address"
        },
        {
          "internalType": "uint256",
          "name": "amount",
          "type": "uint256"
        }
      ],
      "name": "mint",
      "outputs": [],
      "stateMutability": "nonpayable",
      "type": "function"
    },
    {
      "inputs": [],
      "name": "minter",
      "outputs": [
        {
          "internalType": "address",
          "name": "",
          "type": "address"
        }
      ],
      "stateMutability": "view",
      "type": "function"
    },
    {
      "inputs": [],
      "name": "name",
      "outputs": [
        {
          "internalType": "string",
          "name": "",
          "type": "string"
        }
      ],
      "stateMutability": "view",
      "type": "function"
    },
    {
      "inputs": [],
      "name": "symbol",
      "outputs": [
        {
          "internalType": "string",
          "name": "",
          "type": "string"
        }
      ],
      "stateMutability": "view",
      "type": "function"
    },
    {
      "inputs": [],
      "name": "totalSupply",
      "outputs": [
        {
          "internalType": "uint256",
          "name": "",
          "type": "uint256"
        }
      ],
      "stateMutability": "view",
      "type": "function"
    },
    {
      "inputs": [
        {
          "internalType": "address",
          "name": "to",
          "type": "address"
        },
        {
          "internalType": "uint256",
          "name": "value",
          "type": "uint256"
        }
      ],
      "name": "transfer",
      "outputs": [
        {
          "internalType": "bool",
          "name": "",
          "type": "bool"
        }
      ],
      "stateMutability": "nonpayable",
      "type": "function"
    },
    {
      "inputs": [
        {
          "internalType": "address",
          "name": "from",
          "type": "address"
        },
        {
          "internalType": "address",
          "name": "to",
          "type": "address"
        },
        {
          "internalType": "uint256",
          "name": "value",
          "type": "uint256"
        }
      ],
      "name": "transferFrom",
      "outputs": [
        {
          "internalType": "bool",
          "name": "",
          "type": "bool"
        }
      ],
      "stateMutability": "nonpayable",
      "type": "function"
    }
  ],
  "bytecode": "0x608060405234801561001057600080fd5b50604051610aa5380380610aa583398101604081905261002f916100d7565b604051806040016040528060088152602001672120a62a37b5b2b760c11b8152506040518060400160405280600381526020016210905360ea1b815250816003908161007b91906101a8565b50600461008882826101a8565b5050506001600160a01b0381166100b25760405163e6c4247b60e01b815260040160405180910390fd5b600580546001600160a01b0319166001600160a01b0392909216919091179055610267565b6000602082840312156100e957600080fd5b81516001600160a01b038116811461010057600080fd5b9392505050565b634e487b7160e01b600052604160045260246000fd5b600181811c9082168061013157607f821691505b60208210810361015157634e487b7160e01b600052602260045260246000fd5b50919050565b601f8211156101a3576000816000526020600020601f850160051c810160208610156101805750805b601f850160051c820191505b8181101561019f5782815560010161018c565b5050505b505050565b81516001600160401b038111156101c1576101c1610107565b6101d5816101cf845461011d565b84610157565b602080601f83116001811461020a57600084156101f25750858301515b600019600386901b1c1916600185901b17855561019f565b600085815260208120601f198616915b828110156102395788860151825594840194600190910190840161021a565b50858210156102575787850151600019600388901b60f8161c191681555b5050505050600190811b01905550565b61082f806102766000396000f3fe608060405234801561001057600080fd5b50600436106100a95760003560e01c8063313ce56711610071578063313ce5671461013f57806340c10f191461014e57806370a082311461016357806395d89b411461018c578063a9059cbb14610194578063dd62ed3e146101a757600080fd5b806306fdde03146100ae57806307546172146100cc578063095ea7b3146100f757806318160ddd1461011a57806323b872dd1461012c575b600080fd5b6100b66101e0565b6040516100c39190610678565b60405180910390f35b6005546100df906001600160a01b031681565b6040516001600160a01b0390911681526020016100c3565b61010a6101053660046106e3565b610272565b60405190151581526020016100c3565b6002545b6040519081526020016100c3565b61010a61013a36600461070d565b61028c565b604051601281526020016100c3565b61016161015c3660046106e3565b6102b0565b005b61011e610171366004610749565b6001600160a01b031660009081526020819052604090205490565b6100b6610331565b61010a6101a23660046106e3565b610340565b61011e6101b536600461076b565b6001600160a01b03918216600090815260016020908152604080832093909416825291909152205490565b6060600380546101ef9061079e565b80601f016020809104026020016040519081016040528092919081815260200182805461021b9061079e565b80156102685780601f1061023d57610100808354040283529160200191610268565b820191906000526020600020905b81548152906001019060200180831161024b57829003601f168201915b5050505050905090565b60003361028081858561034e565b60019150505b92915050565b60003361029a858285610360565b6102a58585856103e4565b506001949350505050565b6005546001600160a01b031633146102db57604051633e34a41b60e21b815260040160405180910390fd5b6001600160a01b0382166103025760405163e6c4247b60e01b815260040160405180910390fd5b8060000361032357604051631f2a200560e01b815260040160405180910390fd5b61032d8282610443565b5050565b6060600480546101ef9061079e565b6000336102808185856103e4565b61035b8383836001610479565b505050565b6001600160a01b038381166000908152600160209081526040808320938616835292905220546000198110156103de57818110156103cf57604051637dc7a0d960e11b81526001600160a01b038416600482015260248101829052604481018390526064015b60405180910390fd5b6103de84848484036000610479565b50505050565b6001600160a01b03831661040e57604051634b637e8f60e11b8152600060048201526024016103c6565b6001600160a01b0382166104385760405163ec442f0560e01b8152600060048201526024016103c6565b61035b83838361054e565b6001600160a01b03821661046d5760405163ec442f0560e01b8152600060048201526024016103c6565b61032d6000838361054e565b6001600160a01b0384166104a35760405163e602df0560e01b8152600060048201526024016103c6565b6001600160a01b0383166104cd57604051634a1406b160e11b8152600060048201526024016103c6565b6001600160a01b03808516600090815260016020908152604080832093871683529290522082905580156103de57826001600160a01b0316846001600160a01b03167f8c5be1e5ebec7d5bd14f71427d1e84f3dd0314c0f7b2291e5b200ac8c7c3b9258460405161054091815260200190565b60405180910390a350505050565b6001600160a01b03831661057957806002600082825461056e91906107d8565b909155506105eb9050565b6001600160a01b038316600090815260208190526040902054818110156105cc5760405163391434e360e21b81526001600160a01b038516600482015260248101829052604481018390526064016103c6565b6001600160a01b03841660009081526020819052604090209082900390555b6001600160a01b03821661060757600280548290039055610626565b6001600160a01b03821660009081526020819052604090208054820190555b816001600160a01b0316836001600160a01b03167fddf252ad1be2c89b69c2b068fc378daa952ba7f163c4a11628f55a4df523b3ef8360405161066b91815260200190565b60405180910390a3505050565b60006020808352835180602085015260005b818110156106a65785810183015185820160400152820161068a565b506000604082860101526040601f19601f8301168501019250505092915050565b80356001600160a01b03811681146106de57600080fd5b919050565b600080604083850312156106f657600080fd5b6106ff836106c7565b946020939093013593505050565b60008060006060848603121561072257600080fd5b61072b846106c7565b9250610739602085016106c7565b9150604084013590509250925092565b60006020828403121561075b57600080fd5b610764826106c7565b9392505050565b6000806040838503121561077e57600080fd5b610787836106c7565b9150610795602084016106c7565b90509250929050565b600181811c908216806107b257607f821691505b6020821081036107d257634e487b7160e01b600052602260045260246000fd5b50919050565b8082018082111561028657634e487b7160e01b600052601160045260246000fdfea264697066735822122026a1c85df161d94cc0c89a9b3b9791589b94cfd7ffbb3179963fe384d782885464736f6c63430008180033",
  "linkReferences": {},
  "deployedLinkReferences": {}
}