{
  "_format": "hh-sol-artifact-1",
  "contractName": "Election",
  "sourceName": "contracts/Election.sol",
  "abi": [
    {
      "inputs": [
        {
          "internalType": "address",
          "name": "_balToken",
          "type": "address"
        }
      ],
      "stateMutability": "nonpayable",
      "type": "constructor"
    },
    {
      "inputs": [],
      "name": "AlreadyVoted",
      "type": "error"
    },
    {
      "inputs": [],
      "name": "ElectionEnded",
      "type": "error"
    },
    {
      "inputs": [],
      "name": "ElectionNotStarted",
      "type": "error"
    },
    {
      "inputs": [],
      "name": "ElectionStillOngoing",
      "type": "error"
    },
    {
      "inputs": [],
      "name": "EmptyName",
      "type": "error"
    },
    {
      "inputs": [],
      "name": "InvalidAddress",
      "type": "error"
    },
    {
      "inputs": [],
      "name": "InvalidCandidateId",
      "type": "error"
    },
    {
      "inputs": [],
      "name": "InvalidElectionTime",
      "type": "error"
    },
    {
      "inputs": [],
      "name": "InvalidPosition",
      "type": "error"
    },
    {
      "inputs": [],
      "name": "MerkleRootNotSet",
      "type": "error"
    },
    {
      "inputs": [],
      "name": "NotEligibleVoter",
      "type": "error"
    },
    {
      "inputs": [
        {
          "internalType": "address",
          "name": "owner",
          "type": "address"
        }
      ],
      "name": "OwnableInvalidOwner",
      "type": "error"
    },
    {
      "inputs": [
        {
          "internalType": "address",
          "name": "account",
          "type": "address"
        }
      ],
      "name": "OwnableUnauthorizedAccount",
      "type": "error"
    },
    {
      "anonymous": false,
      "inputs": [
        {
          "indexed": true,
          "internalType": "uint256",
          "name": "id",
          "type": "uint256"
        },
        {
          "indexed": false,
          "internalType": "string",
          "name": "name",
          "type": "string"
        }
      ],
      "name": "CandidateAdded",
      "type": "event"
    },
    {
      "anonymous": false,
      "inputs": [
        {
          "indexed": false,
          "internalType": "uint256",
          "name": "startTime",
          "type": "uint256"
        },
        {
          "indexed": false,
          "internalType": "uint256",
          "name": "endTime",
          "type": "uint256"
        }
      ],
      "name": "ElectionTimeSet",
      "type": "event"
    },
    {
      "anonymous": false,
      "inputs": [
        {
          "indexed": false,
          "internalType": "string",
          "name": "cid",
          "type": "string"
        }
      ],
      "name": "IPFSCIDSet",
      "type": "event"
    },
    {
      "anonymous": false,
      "inputs": [
        {
          "indexed": false,
          "internalType": "bytes32",
          "name": "root",
          "type": "bytes32"
        }
      ],
      "name": "MerkleRootSet",
      "type": "event"
    },
    {
      "anonymous": false,
      "inputs": [
        {
          "indexed": true,
          "internalType": "address",
          "name": "previousOwner",
          "type": "address"
        },
        {
          "indexed": true,
          "internalType": "address",
          "name": "newOwner",
          "type": "address"
        }
      ],
      "name": "OwnershipTransferred",
      "type": "event"
    },
    {
      "anonymous": false,
      "inputs": [
        {
          "indexed": true,
          "internalType": "address",
          "name": "voter",
          "type": "address"
        },
        {
          "indexed": false,
          "internalType": "uint256",
          "name": "amount",
          "type": "uint256"
        }
      ],
      "name": "RewardIssued",
      "type": "event"
    },
    {
      "anonymous": false,
      "inputs": [
        {
          "indexed": true,
          "internalType": "address",
          "name": "voter",
          "type": "address"
        },
        {
          "indexed": true,
          "internalType": "uint256",
          "name": "candidateId",
          "type": "uint256"
        }
      ],
      "name": "VoteCast",
      "type": "event"
    },
    {
      "inputs": [],
      "name": "VOTER_REWARD",
      "outputs": [
        {
          "internalType": "uint256",
          "name": "",
          "type": "uint256"
        }
      ],
      "stateMutability": "view",
      "type": "function"
    },
    {
      "inputs": [
        {
          "internalType": "string",
          "name": "name",
          "type": "string"
        },
        {
          "internalType": "uint8[3]",
          "name": "positions",
          "type": "uint8[3]"
        }
      ],
      "name": "addCandidate",
      "outputs": [],
      "stateMutability": "nonpayable",
      "type": "function"
    },
    {
      "inputs": [],
      "name": "balToken",
      "outputs": [
        {
          "internalType": "contract BALToken",
          "name": "",
          "type": "address"
        }
      ],
      "stateMutability": "view",
      "type": "function"
    },
    {
      "inputs": [],
      "name": "endTime",
      "outputs": [
        {
          "internalType": "uint256",
          "name": "",
          "type": "uint256"
        }
      ],
      "stateMutability": "view",
      "type": "function"
    },
    {
      "inputs": [
        {
          "internalType": "uint256",
          "name": "id",
          "type": "uint256"
        }
      ],
      "name": "getCandidate",
      "outputs": [
        {
          "internalType": "string",
          "name": "name",
          "type": "string"
        },
        {
          "internalType": "uint256",
          "name": "voteCount",
          "type": "uint256"
        },
        {
          "internalType": "uint8[3]",
          "name": "positions",
          "type": "uint8[3]"
        }
      ],
      "stateMutability": "view",
      "type": "function"
    },
    {
      "inputs": [],
      "name": "getCandidateCount",
      "outputs": [
        {
          "internalType": "uint256",
          "name": "",
          "type": "uint256"
        }
      ],
      "stateMutability": "view",
      "type": "function"
    },
    {
      "inputs": [],
      "name": "getResults",
      "outputs": [
        {
          "internalType": "uint256[]",
          "name": "ids",
          "type": "uint256[]"
        },
        {
          "internalType": "uint256[]",
          "name": "votes",
          "type": "uint256[]"
        }
      ],
      "stateMutability": "view",
      "type": "function"
    },
    {
      "inputs": [
        {
          "internalType": "address",
          "name": "",
          "type": "address"
        }
      ],
      "name": "hasVoted",
      "outputs": [
        {
          "internalType": "bool",
          "name": "",
          "type": "bool"
        }
      ],
      "stateMutability": "view",
      "type": "function"
    },
    {
      "inputs": [],
      "name": "ipfsCID",
      "outputs": [
        {
          "internalType": "string",
          "name": "",
          "type": "string"
        }
      ],
      "stateMutability": "view",
      "type": "function"
    },
    {
      "inputs": [],
      "name": "merkleRoot",
      "outputs": [
        {
          "internalType": "bytes32",
          "name": "",
          "type": "bytes32"
        }
      ],
      "stateMutability": "view",
      "type": "function"
    },
    {
      "inputs": [],
      "name": "owner",
      "outputs": [
        {
          "internalType": "address",
          "name": "",
          "type": "address"
        }
      ],
      "stateMutability": "view",
      "type": "function"
    },
    {
      "inputs": [],
      "name": "renounceOwnership",
      "outputs": [],
      "stateMutability": "nonpayable",
      "type": "function"
    },
    {
      "inputs": [
        {
          "internalType": "uint256",
          "name": "_start",
          "type": "uint256"
        },
        {
          "internalType": "uint256",
          "name": "_end",
          "type": "uint256"
        }
      ],
      "name": "setElectionTime",
      "outputs": [],
      "stateMutability": "nonpayable",
      "type": "function"
    },
    {
      "inputs": [
        {
          "internalType": "string",
          "name": "cid",
          "type": "string"
        }
      ],
      "name": "setIPFSCID",
      "outputs": [],
      "stateMutability": "nonpayable",
      "type": "function"
    },
    {
      "inputs": [
        {
          "internalType": "bytes32",
          "name": "root",
          "type": "bytes32"
        }
      ],
      "name": "setMerkleRoot",
      "outputs": [],
      "stateMutability": "nonpayable",
      "type": "function"
    },
    {
      "inputs": [],
      "name": "startTime",
      "outputs": [
        {
          "internalType": "uint256",
          "name": "",
          "type": "uint256"
        }
      ],
      "stateMutability": "view",
      "type": "function"
    },
    {
      "inputs": [
        {
          "internalType": "address",
          "name": "newOwner",
          "type": "address"
        }
      ],
      "name": "transferOwnership",
      "outputs": [],
      "stateMutability": "nonpayable",
      "type": "function"
    },
    {
      "inputs": [
        {
          "internalType": "uint256",
          "name": "candidateId",
          "type": "uint256"
        },
        {
          "internalType": "bytes32[]",
          "name": "proof",
          "type": "bytes32[]"
        }
      ],
      "name": "vote",
      "outputs": [],
      "stateMutability": "nonpayable",
      "type": "function"
    },
    {
      "inputs": [],
      "name": "winner",
      "outputs": [
        {
          "internalType": "uint256",
          "name": "winnerId",
          "type": "uint256"
        }
      ],
      "stateMutability": "view",
      "type": "function"
    }
  ],
  "bytecode": "0x60a060405234801561001057600080fd5b5060405161152238038061152283398101604081905261002f916100e7565b338061005557604051631e4fbdf760e01b81526000600482015260240160405180910390fd5b61005e81610097565b506001600160a01b0381166100865760405163e6c4247b60e01b815260040160405180910390fd5b6001600160a01b0316608052610117565b600080546001600160a01b038381166001600160a01b0319831681178455604051919092169283917f8be0079c531659141344cd1fd0a4f28419497f9722a3daafe3b4186f6b6457e09190a35050565b6000602082840312156100f957600080fd5b81516001600160a01b038116811461011057600080fd5b9392505050565b6080516113e9610139600039600081816101c20152610bbd01526113e96000f3fe608060405234801561001057600080fd5b50600436106101215760003560e01c806349fc73dd116100ad5780638da5cb5b116100715780638da5cb5b1461026d578063dfbf53ae1461027e578063f1335a8f14610286578063f2fde38b14610299578063fd27419b146102ac57600080fd5b806349fc73dd14610221578063715018a61461023657806378e134b61461023e57806378e97925146102515780637cb647591461025a57600080fd5b80633197cbb6116100f45780633197cbb61461019257806335b8e8201461019b57806338d54645146101bd5780633ddcb071146101fc5780634717f97c1461020b57600080fd5b806309eef43e146101265780631b51773a1461015e5780632eb4a7ab1461017357806330a563471461018a575b600080fd5b610149610134366004610e2b565b60066020526000908152604090205460ff1681565b60405190151581526020015b60405180910390f35b61017161016c366004610e9d565b6102bf565b005b61017c60045481565b604051908152602001610155565b60015461017c565b61017c60035481565b6101ae6101a9366004610ef8565b610477565b60405161015593929190610f57565b6101e47f000000000000000000000000000000000000000000000000000000000000000081565b6040516001600160a01b039091168152602001610155565b61017c678ac7230489e8000081565b6102136105bd565b604051610155929190610fe4565b6102296106f8565b6040516101559190611012565b610171610786565b61017161024c366004611025565b61079a565b61017c60025481565b610171610268366004610ef8565b61080f565b6000546001600160a01b03166101e4565b61017c610852565b610171610294366004611067565b6108fc565b6101716102a7366004610e2b565b610984565b6101716102ba366004611089565b6109c7565b6102c7610c5b565b60008290036102e957604051632ef1310560e01b815260040160405180910390fd5b60005b600381101561037857600182826003811061030957610309611108565b60200201602081019061031c919061111e565b60ff1610806103525750600582826003811061033a5761033a611108565b60200201602081019061034d919061111e565b60ff16115b156103705760405163673f032f60e11b815260040160405180910390fd5b6001016102ec565b50600180546040805160806020601f880181900402820181019092526060810186815292939290918291908890889081908501838280828437600092018290525093855250505060208201526040805160608181018352919092019190869060039083908390808284376000920182905250929093525083546001810185559381526020902082519293600302019182915061041490826111e2565b506020820151600182015560408201516104349060028301906003610d65565b505050807fe83b2a43e7e82d975c8a0a6d2f045153c869e111136a34d1889ab7b598e396a385856040516104699291906112a2565b60405180910390a250505050565b60606000610483610df8565b60015484106104a55760405163347247e160e21b815260040160405180910390fd5b6000600185815481106104ba576104ba611108565b90600052602060002090600302019050806000018160010154826002018280546104e390611157565b80601f016020809104026020016040519081016040528092919081815260200182805461050f90611157565b801561055c5780601f106105315761010080835404028352916020019161055c565b820191906000526020600020905b81548152906001019060200180831161053f57829003601f168201915b5050604080516060810191829052949750859350600392509050826000855b825461010083900a900460ff1681526020600192830181810494850194909303909202910180841161057b5750979d969c50939a509498505050505050505050565b60608060035442111580156105d3575060035415155b156105f157604051630d82f9cb60e41b815260040160405180910390fd5b6001548067ffffffffffffffff81111561060d5761060d611141565b604051908082528060200260200182016040528015610636578160200160208202803683370190505b5092508067ffffffffffffffff81111561065257610652611141565b60405190808252806020026020018201604052801561067b578160200160208202803683370190505b50915060005b818110156106f2578084828151811061069c5761069c611108565b602002602001018181525050600181815481106106bb576106bb611108565b9060005260206000209060030201600101548382815181106106df576106df611108565b6020908102919091010152600101610681565b50509091565b6005805461070590611157565b80601f016020809104026020016040519081016040528092919081815260200182805461073190611157565b801561077e5780601f106107535761010080835404028352916020019161077e565b820191906000526020600020905b81548152906001019060200180831161076157829003601f168201915b505050505081565b61078e610c5b565b6107986000610c88565b565b6107a2610c5b565b60008190036107c457604051632ef1310560e01b815260040160405180910390fd5b60056107d18284836112d1565b507f103ee28b92d08fcda13a1478a491dc27065d2c6d67a476fe29b9035314ab99ef82826040516108039291906112a2565b60405180910390a15050565b610817610c5b565b60048190556040518181527f42cbc405e4dbf1b691e85b9a34b08ecfcf7a9ad9078bf4d645ccfa1fac11c10b9060200160405180910390a150565b60006003544211158015610867575060035415155b1561088557604051630d82f9cb60e41b815260040160405180910390fd5b5060015460009081805b828110156108f65781600182815481106108ab576108ab611108565b90600052602060002090600302016001015411156108ee57600181815481106108d6576108d6611108565b90600052602060002090600302016001015491508093505b60010161088f565b50505090565b610904610c5b565b428211610924576040516333d1110d60e11b815260040160405180910390fd5b818111610944576040516333d1110d60e11b815260040160405180910390fd5b6002829055600381905560408051838152602081018390527fc6f7790e0b8f3285b87267944c9d67a1c50937865beadf1e8d960712763db3289101610803565b61098c610c5b565b6001600160a01b0381166109bb57604051631e4fbdf760e01b8152600060048201526024015b60405180910390fd5b6109c481610c88565b50565b6002544210156109ea576040516372a84ce560e11b815260040160405180910390fd5b600354421115610a0d5760405163066ec72360e41b815260040160405180910390fd5b6001548310610a2f5760405163347247e160e21b815260040160405180910390fd5b3360009081526006602052604090205460ff1615610a6057604051637c9a1cf960e01b815260040160405180910390fd5b600454610a8057604051634fc5147960e11b815260040160405180910390fd5b6040516bffffffffffffffffffffffff193360601b166020820152600090603401604051602081830303815290604052805190602001209050610afa838380806020026020016040519081016040528093929190818152602001838360200280828437600092019190915250506004549150849050610cd8565b610b175760405163c59b6a7560e01b815260040160405180910390fd5b336000908152600660205260409020805460ff191660019081179091558054819086908110610b4857610b48611108565b90600052602060002090600302016001016000828254610b689190611392565b9091555050604051849033907fa36cc2bebb74db33e9f88110a07ef56e1b31b24b4c4f51b54b1664266e29f45b90600090a36040516340c10f1960e01b8152336004820152678ac7230489e8000060248201527f00000000000000000000000000000000000000000000000000000000000000006001600160a01b0316906340c10f1990604401600060405180830381600087803b158015610c0957600080fd5b505af1158015610c1d573d6000803e3d6000fd5b5050604051678ac7230489e8000081523392507ff9b6ec770c96c3a6f9225bf3a8463a8ad03e884448af07b4ecd4d19d628946ee9150602001610469565b6000546001600160a01b031633146107985760405163118cdaa760e01b81523360048201526024016109b2565b600080546001600160a01b038381166001600160a01b0319831681178455604051919092169283917f8be0079c531659141344cd1fd0a4f28419497f9722a3daafe3b4186f6b6457e09190a35050565b600082610ce58584610cee565b14949350505050565b600081815b8451811015610d2957610d1f82868381518110610d1257610d12611108565b6020026020010151610d33565b9150600101610cf3565b5090505b92915050565b6000818310610d4f576000828152602084905260409020610d5e565b60008381526020839052604090205b9392505050565b600183019183908215610de85791602002820160005b83821115610db957835183826101000a81548160ff021916908360ff1602179055509260200192600101602081600001049283019260010302610d7b565b8015610de65782816101000a81549060ff0219169055600101602081600001049283019260010302610db9565b505b50610df4929150610e16565b5090565b60405180606001604052806003906020820280368337509192915050565b5b80821115610df45760008155600101610e17565b600060208284031215610e3d57600080fd5b81356001600160a01b0381168114610d5e57600080fd5b60008083601f840112610e6657600080fd5b50813567ffffffffffffffff811115610e7e57600080fd5b602083019150836020828501011115610e9657600080fd5b9250929050565b600080600060808486031215610eb257600080fd5b833567ffffffffffffffff811115610ec957600080fd5b610ed586828701610e54565b90945092505060808401851015610eeb57600080fd5b6020840190509250925092565b600060208284031215610f0a57600080fd5b5035919050565b6000815180845260005b81811015610f3757602081850181015186830182015201610f1b565b506000602082860101526020601f19601f83011685010191505092915050565b60a081526000610f6a60a0830186610f11565b90506020846020840152604083018460005b6003811015610f9c57815160ff1683529183019190830190600101610f7c565b50505050949350505050565b60008151808452602080850194506020840160005b83811015610fd957815187529582019590820190600101610fbd565b509495945050505050565b604081526000610ff76040830185610fa8565b82810360208401526110098185610fa8565b95945050505050565b602081526000610d5e6020830184610f11565b6000806020838503121561103857600080fd5b823567ffffffffffffffff81111561104f57600080fd5b61105b85828601610e54565b90969095509350505050565b6000806040838503121561107a57600080fd5b50508035926020909101359150565b60008060006040848603121561109e57600080fd5b83359250602084013567ffffffffffffffff808211156110bd57600080fd5b818601915086601f8301126110d157600080fd5b8135818111156110e057600080fd5b8760208260051b85010111156110f557600080fd5b6020830194508093505050509250925092565b634e487b7160e01b600052603260045260246000fd5b60006020828403121561113057600080fd5b813560ff81168114610d5e57600080fd5b634e487b7160e01b600052604160045260246000fd5b600181811c9082168061116b57607f821691505b60208210810361118b57634e487b7160e01b600052602260045260246000fd5b50919050565b601f8211156111dd576000816000526020600020601f850160051c810160208610156111ba5750805b601f850160051c820191505b818110156111d9578281556001016111c6565b5050505b505050565b815167ffffffffffffffff8111156111fc576111fc611141565b6112108161120a8454611157565b84611191565b602080601f831160018114611245576000841561122d5750858301515b600019600386901b1c1916600185901b1785556111d9565b600085815260208120601f198616915b8281101561127457888601518255948401946001909101908401611255565b50858210156112925787850151600019600388901b60f8161c191681555b5050505050600190811b01905550565b60208152816020820152818360408301376000818301604090810191909152601f909201601f19160101919050565b67ffffffffffffffff8311156112e9576112e9611141565b6112fd836112f78354611157565b83611191565b6000601f84116001811461133157600085156113195750838201355b600019600387901b1c1916600186901b17835561138b565b600083815260209020601f19861690835b828110156113625786850135825560209485019460019092019101611342565b508682101561137f5760001960f88860031b161c19848701351681555b505060018560011b0183555b5050505050565b80820180821115610d2d57634e487b7160e01b600052601160045260246000fdfea2646970667358221220404a12de2668727c1fc258c5766b77cde0282fa54b8bdb5df3484738bb973e9964736f6c63430008180033",
  "linkReferences": {},
  "deployedLinkReferences": {}
}